{
  "contractName": "IOU",
  "abi": [
    {
      "constant": false,
      "inputs": [
        {
          "name": "_t",
          "type": "int256"
        }
      ],
      "name": "set",
      "outputs": [],
      "payable": false,
      "stateMutability": "nonpayable",
      "type": "function"
    }
  ],
  "bytecode": "0x6080604052348015600f57600080fd5b5060a48061001e6000396000f300608060405260043610603f576000357c0100000000000000000000000000000000000000000000000000000000900463ffffffff168063e5c19b2d146044575b600080fd5b348015604f57600080fd5b50606c60048036038101908080359060200190929190505050606e565b005b80600081905550505600a165627a7a7230582011b5624d376453ab936eabe2ee669b0a5be2995ac91f8b4d7c8c8f01184aeb3b0029",
  "source": "// solium-disable linebreak-style\r\npragma solidity >=0.4.2;\r\n\r\ncontract IOU {\r\n\r\n    //string names;\r\n    int tokens;\r\n\r\n    /*\r\n    function setThaValues(int _tokens) public {\r\n        //names = _hood;\r\n        tokens = _tokens;\r\n    }\r\n    */\r\n    function set(int _t) public {\r\n        tokens = _t;\r\n    }\r\n    /*\r\n    struct IOUMotion {\r\n        uint iouId;\r\n        uint amount;\r\n        address individualOwed;\r\n        uint conditionId;\r\n    }\r\n\r\n    event iouEvent (\r\n        uint indexed _iouCount\r\n    );\r\n\r\n    uint public iouCount;\r\n\r\n    mapping(uint => IOUMotion) public ious;\r\n    \r\n    function addIOU(uint _amount, address _individualTo, uint _conditionId) public {\r\n        iouCount++;\r\n        ious[iouCount] = IOUMotion(iouCount, _amount, _individualTo, _conditionId);\r\n\r\n        emit iouEvent(iouCount);\r\n    }\r\n    */\r\n\r\n}\r\n",
  "sourcePath": "C:\\Nik\\iou_token\\contracts\\IOU.sol",
  "compiler": {
    "name": "solc",
    "version": "0.4.24+commit.e67f0147.Emscripten.clang"
  },
  "schemaVersion": "2.0.1",
  "updatedAt": "2019-02-22T22:03:29.839Z"
}